S01700006C63645F696E746572666163696E642E73726563F4
S11300000C942A000C943F000C943F000C943F0085
S11300100C943F000C943F000C943F000C943F0060
S11300200C943F000C943F000C943F000C943F0050
S11300300C943F000C943F000C943F000C943F0040
S11300400C943F000C943F000C943F000C943F0030
S11300500C943F0011241FBECFE5D8E0DEBFCDBF16
S113006010E0A0E6B0E0E0EEF4E002C005900D92EE
S1130070A038B107D9F70E94F7010C946E020C94D2
S113008000004130A1F5813089F028F08230C9F0B8
S1130090833011F108952AB381E090E002C0880F03
S11300A0991F6A95E2F7822B8ABB089527B381E0F2
S11300B090E002C0880F991F6A95E2F7822B87BBF4
S11300C0089524B381E090E002C0880F991F6A95D7
S11300D0E2F7822B84BB089521B381E090E002C053
S11300E0880F991F6A95E2F7822B81BB089541110D
S11300F037C0813091F028F08230D9F0833029F173
S113010008952AB381E090E002C0880F991F6A9590
S1130110E2F7809582238ABB089527B381E090E0BB
S113012002C0880F991F6A95E2F78095822387BBE6
S1130130089524B381E090E002C0880F991F6A9566
S1130140E2F78095822384BB089521B381E090E097
S113015002C0880F991F6A95E2F78095822381BBBC
S113016008954130A1F5813089F028F08230C9F03A
S1130170833011F108952BB381E090E002C0880F21
S1130180991F6A95E2F7822B8BBB089528B381E00F
S113019090E002C0880F991F6A95E2F7822B88BB12
S11301A0089525B381E090E002C0880F991F6A95F5
S11301B0E2F7822B85BB089522B381E090E002C070
S11301C0880F991F6A95E2F7822B82BB089541112B
S11301D037C0813091F028F08230D9F0833029F192
S11301E008952BB381E090E002C0880F991F6A95AF
S11301F0E2F7809582238BBB089528B381E090E0D9
S113020002C0880F991F6A95E2F78095822388BB04
S1130210089525B381E090E002C0880F991F6A9584
S1130220E2F78095822385BB089522B381E090E0B4
S113023002C0880F991F6A95E2F78095822382BBDA
S11302400895813041F028F0823039F0833039F05C
S113025008956ABB089567BB089564BB089561BBA4
S113026008950F931F93CF93DF9300D000D0CDB7A1
S1130270DEB7082F84E0898385E08A8386E08B8358
S113028087E08C8310E014C0402F50E0012E02C0A0
S1130290559547950A94E2F74170E1E0F0E0EC0FE0
S11302A0FD1FE10FF11D608180E00E94B1001F5F1E
S11302B0143050F30F900F900F900F90DF91CF9167
S11302C01F910F91089541E063E081E00E94B10025
S11302D08FE39FE10197F1F700C0000040E063E085
S11302E081E00E94B1000895CF93C82F41E061E0FE
S11302F081E00E94B10040E062E081E00E94B10030
S11303008C2F82958F700E9431010E9463018C2F83
S11303100E9431010E946301CF910895CF93C82FA9
S113032040E061E081E00E94B10040E062E081E0F1
S11303300E94B1008C2F82958F700E9431010E941F
S113034063018C2F0E9431010E946301CF910895B3
S11303502FEF83EF91E0215080409040E1F700C0FF
S1130360000082E00E9431010E94630182E00E9449
S113037031010E94630188E00E9431010E946301FF
S11303808CE00E948E0181E00E948E01089561112B
S1130390805C80680E948E010895EF92FF920F9313
S11303A01F93CF93DF93D82F8B01F42EE22E880F67
S11303B0880F880F8F7780640E948E01C0E007C089
S11303C0F801EC0FF11D80810E947401CF5FC830E9
S11303D0B8F36E2D8F2D0E94C7018D2F0E947401DA
S11303E0DF91CF911F910F91FF90EF900895CF93DC
S11303F0DF93CDB7DEB7A0970FB6F894DEBF0FBE7C
S1130400CDBF40E064E081E00E94410040E065E04F
S113041081E00E94410040E066E081E00E944100EA
S113042041E064E081E00E94B10041E065E081E0E8
S11304300E94B10041E066E081E00E94B10060EFFB
S113044080E00E9421016EE081E00E9421010E946F
S1130450A80188E0E0E6F0E0DE01119601900D923B
S11304608A95E1F788E0E8E6F0E0DE01199601906C
S11304700D928A95E1F788E0E0E7F0E0DE0151961D
S113048001900D928A95E1F788E0E8E7F0E0DE015B
S1130490599601900D928A95E1F720E048E0BE015B
S11304A06F5F7F4F80E00E94CD0120E047E0BE01F6
S11304B0675F7F4F81E00E94CD0120E046E0BE01EE
S11304C06F5E7F4F82E00E94CD0120E045E0BE01D7
S11304D0675E7F4F83E00E94CD01DFCFF894FFCFAA
S11304E01F100804021F000000000001011F060085
S11304F0000000000203041800000E0A0F02041892
S9030000FC
