S01400007761746572206865617465722E7372656354
S11300000C942A000C9444020C946B020C949202FB
S11300100C9447000C9447000C9447000C94470040
S11300200C9447000C9447000C9447000C94470030
S11300300C9447000C9447000C9447000C94470020
S11300400C9447000C9447000C9447000C94470010
S11300500C94470011241FBECFE5D8E0DEBFCDBF0E
S113006010E0A0E6B0E0EEEBF9E002C005900D92DE
S1130070A236B107D9F720E0A2E6B0E001C01D9294
S1130080AC36B207E1F70E94AD040C94DD040C9485
S1130090000041E067E082E00E94D80041E066E0B1
S11300A082E00E94D80041E065E082E00E94D8002E
S11300B041E064E082E00E94D80041E064E083E033
S11300C00E94D80041E060E083E00E94D80041E053
S11300D061E083E00E94D800089541E060E083E09D
S11300E00E944801089540E060E083E00E944801D6
S11300F0089541E061E083E00E944801089540E0F2
S113010061E083E00E9448010895CF93DF93C82FF4
S1130110D62F0E9473000E947F00CA3028F54C2F0E
S1130120417064E082E00E944801C1FB442740F929
S113013065E082E00E944801C2FB442740F966E082
S113014082E00E944801C3FB442740F967E082E053
S11301500E944801DD2319F0D13021F005C00E942E
S11301606D0002C00E947900DF91CF91089587B19C
S1130170806487B987B18F7787B986B1887F86B95C
S113018086B1876086B986B1806886B9089597B1CB
S1130190907E97B997B1892B87B986B1806486B967
S11301A0349BFECF86B1806186B984B195B1089540
S11301B04130A1F5813089F028F08230C9F08330D4
S11301C011F108952AB381E090E002C0880F991FCD
S11301D06A95E2F7822B8ABB089527B381E090E009
S11301E002C0880F991F6A95E2F7822B87BB089596
S11301F024B381E090E002C0880F991F6A95E2F76A
S1130200822B84BB089521B381E090E002C0880F63
S1130210991F6A95E2F7822B81BB0895411137C07B
S1130220813091F028F08230D9F0833029F108959B
S11302302AB381E090E002C0880F991F6A95E2F723
S1130240809582238ABB089527B381E090E002C0A1
S1130250880F991F6A95E2F78095822387BB0895DA
S113026024B381E090E002C0880F991F6A95E2F7F9
S11302708095822384BB089521B381E090E002C07D
S1130280880F991F6A95E2F78095822381BB0895B0
S11302904130A1F5813089F028F08230C9F08330F3
S11302A011F108952BB381E090E002C0880F991FEB
S11302B06A95E2F7822B8BBB089528B381E090E026
S11302C002C0880F991F6A95E2F7822B88BB0895B4
S11302D025B381E090E002C0880F991F6A95E2F788
S11302E0822B85BB089522B381E090E002C0880F81
S11302F0991F6A95E2F7822B82BB0895411137C09A
S1130300813091F028F08230D9F0833029F10895BA
S11303102BB381E090E002C0880F991F6A95E2F741
S1130320809582238BBB089528B381E090E002C0BE
S1130330880F991F6A95E2F78095822388BB0895F8
S113034025B381E090E002C0880F991F6A95E2F717
S11303508095822385BB089522B381E090E002C09A
S1130360880F991F6A95E2F78095822382BB0895CE
S1130370E199FECF90E09FBB8EBB6DBB8CB38460D4
S11303808CBB8CB382608CBB0895E199FECF9FBB7C
S11303908EBB8CB381608CBB8DB30895613039F111
S11303A020F0623009F445C00895811107C085B773
S11303B0816085BF85B7826085BF0895813039F437
S11303C085B78E7F85BF85B7826085BF08958230EB
S11303D039F485B7816085BF85B78D7F85BF089562
S11303E085B78E7F85BF85B78D7F85BF08958111C1
S11303F007C085B7846085BF85B7886085BF0895C9
S1130400813039F485B78B7F85BF85B7886085BF18
S11304100895823039F485B7846085BF85B7877FB6
S113042085BF089585B78B7F85BF85B7877F85BFD7
S11304300895811104C084B7806484BF0895813015
S113044019F484B78F7B84BF08958BB780648BBF06
S113045008958BB780688BBF08958BB780628BBF7C
S11304600895811104C07093670060936600813021
S113047021F47093650060936400823021F47093DA
S113048063006093620008951F920F920FB60F925B
S113049011242F933F934F935F936F937F938F9385
S11304A09F93AF93BF93EF93FF93E0916600F09116
S11304B067000995FF91EF91BF91AF919F918F9143
S11304C07F916F915F914F913F912F910F900FBE4C
S11304D00F901F9018951F920F920FB60F92112430
S11304E02F933F934F935F936F937F938F939F9338
S11304F0AF93BF93EF93FF93E0916400F091650095
S11305000995FF91EF91BF91AF919F918F917F9149
S11305106F915F914F913F912F910F900FBE0F906C
S11305201F9018951F920F920FB60F9211242F93BC
S11305303F934F935F936F937F938F939F93AF9367
S1130540BF93EF93FF93E0916200F09163000995EC
S1130550FF91EF91BF91AF919F918F917F916F9197
S11305605F914F913F912F910F900FBE0F901F906D
S113057018958FB780688FBF089580916A0088238B
S1130580A9F060916000862F90E005968C34910567
S113059084F46B5F6093600080E00E94B8018FE593
S11305A09AEE0197F1F700C0000003C081E0809348
S11305B06A0010926900089580916A008823A1F06E
S11305C060916000862F90E00597839784F06550D2
S11305D06093600080E00E94B8018FE59AEE019775
S11305E0F1F700C0000003C081E080936A0010921C
S11305F06900089581E090916B00911180E08093EF
S11306006B00811112C040E064E00E94480140E0A8
S113061065E080E00E94480140E066E080E00E94DE
S113062048010E9473000E947F00089540E063E047
S113063081E00E94D80040E060E080E00E94D800A1
S113064040E062E083E00E94D80040E063E083E0A1
S11306500E94D80041E064E080E00E94D80041E0BC
S113066065E080E00E94D80041E066E080E00E94FE
S1130670D8000E9449000E94B70080E090E00E94E8
S1130680C501809360008352893218F08CE3809313
S113069060000E94B90260E080E00E94CE0161E047
S11306A080E00E94CE0162E080E00E94CE010E94C0
S11306B025020E9429020E942D026DEB72E080E067
S11306C00E9431026CED72E081E00E9431026AEF17
S11306D072E082E00E9431020895FF920F931F930B
S11306E0CF93DF93F12C00E010E03CC080E00E9447
S11306F0C70024EF31E0AC01429FC001439F900D3D
S1130700529F900D11246FEF73E00E94BA04060FFC
S1130710111DD0E024C080916100CDEC8C9FC12DCF
S11307201124C695C695C6952C2F220F922F990F8A
S1130730990F920F60E0891B0E9485008FE19EE46F
S11307400197F1F700C0000061E08C2F0E94850042
S11307508FE19EE40197F1F700C00000DF5FDA301B
S1130760D0F2F39499E09F1508F69801ADECBCEC37
S11307700E94CE049695879596958795969587952C
S113078080936100DF91CF911F910F91FF900895A5
S1130790CF93DF9380916A00882309F446C0809147
S11307A06B0081113BC041C080916000CDEC8C9FF7
S11307B0C12D1124C695C695C6952C2F220F922FB4
S11307C0990F990F920F60E0891B0E9485008FE3B7
S11307D09CE90197F1F700C0000061E08C2F0E94B2
S11307E085008FE39CE90197F1F700C00000DF5F0B
S11307F001C0D0E0DD32C0F20E9473000E947F008D
S11308009FEF21EE84E0915020408040E1F700C04A
S11308100000809169008F5F809369008091690076
S1130820853038F310926A002EC080916B008823C3
S113083021F180916100CDEC8C9FC12D1124C695CE
S1130840C695C6952C2F220F922F990F990F920FB0
S113085060E0891B0E9485008FE19EE40197F1F717
S113086000C0000061E08C2F0E9485008FE19EE4AF
S11308700197F1F700C0000006C0811104C00E9476
S113088073000E947F00DF91CF91089580916800EA
S1130890811108C041E066E00E94480181E0809334
S11308A06800089540E066E080E00E9448011092EC
S11308B06800089550916100252F30E04091600058
S11308C0842F90E0BC0165507109621773076CF0C6
S11308D041E064E080E00E94480140E065E080E09F
S11308E00E9448010E94460425C00596281739072E
S11308F084F040E064E080E00E94480141E065E06B
S113090080E00E94480141E066E080E00E944801E6
S113091011C054130FC040E064E080E00E9448011D
S113092040E065E080E00E94480140E066E080E04D
S11309300E94480180916B0081110EC040E064E088
S11309400E94480140E065E080E00E94480140E0E8
S113095066E080E00E94480108950E941603809199
S11309606B008130E1F70E946D030E945A040E94DB
S1130970C803F5CFAA1BBB1B51E107C0AA1FBB1FAD
S1130980A617B70710F0A61BB70B881F991F5A9517
S1130990A9F780959095BC01CD010895A29FB0015F
S11309A0B39FC001A39F700D811D1124911DB29F9F
S11109B0700D811D1124911D0895F894FFCF40
S10509BE3C3CBB
S9030000FC
