:100000000C942A000C943F000C943F000C943F0089
:100010000C943F000C943F000C943F000C943F0064
:100020000C943F000C943F000C943F000C943F0054
:100030000C943F000C943F000C943F000C943F0044
:100040000C943F000C943F000C943F000C943F0034
:100050000C943F0011241FBECFE5D8E0DEBFCDBF1A
:1000600010E0A0E6B0E0EAE0F7E002C005900D92F3
:10007000A639B107D9F70E94E4020C9483030C94CB
:1000800000004130A1F5813089F028F08230C9F0BC
:10009000833011F108952AB381E090E002C0880F07
:1000A000991F6A95E2F7822B8ABB089527B381E0F6
:1000B00090E002C0880F991F6A95E2F7822B87BBF8
:1000C000089524B381E090E002C0880F991F6A95DB
:1000D000E2F7822B84BB089521B381E090E002C057
:1000E000880F991F6A95E2F7822B81BB0895411111
:1000F00037C0813091F028F08230D9F0833029F177
:1001000008952AB381E090E002C0880F991F6A9594
:10011000E2F7809582238ABB089527B381E090E0BF
:1001200002C0880F991F6A95E2F78095822387BBEA
:10013000089524B381E090E002C0880F991F6A956A
:10014000E2F78095822384BB089521B381E090E09B
:1001500002C0880F991F6A95E2F78095822381BBC0
:1001600008954130A1F5813089F028F08230C9F03E
:10017000833011F108952BB381E090E002C0880F25
:10018000991F6A95E2F7822B8BBB089528B381E013
:1001900090E002C0880F991F6A95E2F7822B88BB16
:1001A000089525B381E090E002C0880F991F6A95F9
:1001B000E2F7822B85BB089522B381E090E002C074
:1001C000880F991F6A95E2F7822B82BB089541112F
:1001D00037C0813091F028F08230D9F0833029F196
:1001E00008952BB381E090E002C0880F991F6A95B3
:1001F000E2F7809582238BBB089528B381E090E0DD
:1002000002C0880F991F6A95E2F78095822388BB08
:10021000089525B381E090E002C0880F991F6A9588
:10022000E2F78095822385BB089522B381E090E0B8
:1002300002C0880F991F6A95E2F78095822382BBDE
:100240000895813079F028F08230A9F08330E1F010
:1002500024C089B390E002C0959587956A95E2F72E
:100260008170089586B390E002C0959587956A9550
:10027000E2F78170089583B390E002C09595879569
:100280006A95E2F78170089580B390E002C0959579
:1002900087956A95E2F78170089580E0089581302E
:1002A00041F028F0823039F0833039F008956ABB8C
:1002B000089567BB089564BB089561BB08950F93CB
:1002C0001F93CF93DF93CDB7DEB728970FB6F8947F
:1002D000DEBF0FBECDBF84E0898385E08A8386E0E0
:1002E0008B8387E08C831D8281E08E8382E08F8305
:1002F00083E0888710E012C0E1E0F0E0EC0FFD1F22
:10030000E10FF11D008141E0602F82E00E94410079
:1003100041E0602F82E00E94B1001F5F143060F363
:1003200010E012C0E5E0F0E0EC0FFD1FE10FF11D61
:10033000008140E0602F82E00E94410041E0602F98
:1003400082E00E94B1001F5F143060F328960FB660
:10035000F894DEBF0FBECDBFDF91CF911F910F91FB
:100360000895AF92BF92CF92DF92EF92FF920F93D8
:100370001F93CF93DF93CDB7DEB728970FB6F894CE
:10038000DEBF0FBECDBF84E0898385E08A8386E02F
:100390008B8387E08C831D8281E08E8382E08F8354
:1003A00083E08887B12C3BC0CB2CD12CE1E0F0E07E
:1003B000EC0FFD1FEC0DFD1DA08040E06A2D82E0DA
:1003C0000E94B10010E023C0E12EF12CE5E0F0E046
:1003D000EC0FFD1FEE0DFF1D0081602F82E00E94DB
:1003E0002101811113C0C701880F991F880F991F20
:1003F000805A9F4FFC01EC0DFD1D1081602F82E0A3
:100400000E9421018823D1F3812F0DC01F5F14307A
:10041000D8F241E06A2D82E00E94B100B39483E0FB
:100420008B1510F68FEF28960FB6F894DEBF0FBE2F
:10043000CDBFDF91CF911F910F91FF90EF90DF9093
:10044000CF90BF90AF9008950F931F93CF93DF93FA
:1004500000D000D0CDB7DEB7082F84E0898385E0D7
:100460008A8386E08B8387E08C8310E014C0402F62
:1004700050E0012E02C0559547950A94E2F741706D
:10048000E1E0F0E0EC0FFD1FE10FF11D608180E085
:100490000E94B1001F5F143050F30F900F900F9027
:1004A0000F90DF91CF911F910F91089541E063E08C
:1004B00081E00E94B1008FE39FE10197F1F700C056
:1004C000000040E063E081E00E94B1000895CF9316
:1004D000C82F41E061E081E00E94B10040E062E0AD
:1004E00081E00E94B1008C2F82958F700E942402BF
:1004F0000E9456028C2F0E9424020E945602CF9125
:100500000895CF93C82F40E061E081E00E94B100E0
:1005100040E062E081E00E94B1008C2F82958F70F4
:100520000E9424020E9456028C2F0E9424020E94E4
:100530005602CF9108952FEF83EF91E02150804034
:100540009040E1F700C0000082E00E9424020E9477
:10055000560282E00E9424020E94560288E00E9415
:1005600024020E9456028CE00E94810281E00E94D7
:10057000810208950F931F93CF938C01C0E009C0AF
:100580000E9467028FE19EE40197F1F700C000002E
:10059000CF5FF801EC0FF11D80818111F1CFCF9178
:1005A0001F910F9108956111805C80680E94810203
:1005B00008950E94B101EFE5FAEE3197F1F700C01E
:1005C00000008F3FB1F30895EF92FF920F931F93B6
:1005D000CF93DF93CDB7DEB729970FB6F894DEBF80
:1005E0000FBECDBF81E0898382E08A8383E08B8365
:1005F00084E08C8360EF80E00E944F016EE081E038
:100600000E944F010E949B020E945F0160E080E017
:100610000E94D30280E790E00E94BA022FEF8FE0A1
:1006200097E2215080409040E1F700C0000081E057
:100630000E94810210E000E01DC0E12EF12C0E941A
:10064000D902E5E0F0E0EC0FFD1FEE0DFF1D808309
:1006500060E0802F0E94D3028AE20E9467020F5F4F
:100660002FEF89EF90E0215080409040E1F700C0EB
:1006700000001F5F143008F320E013C0822F90E0C9
:10068000E5E0F0E0EC0FFD1FE80FF91F3081E1E03D
:10069000F0E0EC0FFD1FE80FF91F8081381305C053
:1006A0002F5F243058F381E001C080E0811114C035
:1006B00061E00E94D3028AE890E00E94BA022FEF24
:1006C0008BE49DE1215080409040E1F700C00000A4
:1006D00081E00E9481029ACF60E081E00E94D30213
:1006E00081E890E00E94BA0280E090E029960FB67F
:1006F000F894DEBF0FBECDBFDF91CF911F910F9158
:0A070000FF90EF900895F894FFCFEA
:10070A000708092F0405062A0102032D43003D2B81
:10071A00456E7465722070617373776F72643A20E4
:10072A000057656C636F6D6521007472792061678B
:06073A0061696E2E200033
:00000001FF
