S00C0000377365672E73726563A2
S11300000C942A000C9434000C9434000C943400A6
S11300100C9434000C9434000C9434000C9434008C
S11300200C9434000C9434000C9434000C9434007C
S11300300C9434000C9434000C9434000C9434006C
S11300400C9434000C9434000C9434000C9434005C
S11300500C94340011241FBECFE5D8E0DEBFCDBF21
S11300600E94C0010C9408020C94000041E067E077
S113007080E00E94A40041E066E080E00E94A400C9
S113008041E065E080E00E94A40041E064E080E09B
S11300900E94A40041E063E081E00E94A40041E0EA
S11300A062E081E00E94A40041E061E081E00E94FE
S11300B0A400089541E062E081E00E9414010895E3
S11300C040E062E081E00E941401089541E061E0B3
S11300D081E00E941401089540E061E081E00E9403
S11300E014010895CF93DF93C82FD62F0E94600088
S11300F00E946C00CA3028F54C2F417064E080E007
S11301000E941401C1FB442740F965E080E00E948D
S11301101401C2FB442740F966E080E00E94140108
S1130120C3FB442740F967E080E00E941401DD230B
S113013019F0D13021F005C00E945A0002C00E947B
S11301406600DF91CF9108954130A1F5813089F0A7
S113015028F08230C9F0833011F108952AB381E088
S113016090E002C0880F991F6A95E2F7822B8ABB40
S1130170089527B381E090E002C0880F991F6A9523
S1130180E2F7822B87BB089524B381E090E002C09C
S1130190880F991F6A95E2F7822B84BB089521B3D7
S11301A081E090E002C0880F991F6A95E2F7822BE4
S11301B081BB0895411137C0813091F028F082301D
S11301C0D9F0833029F108952AB381E090E002C088
S11301D0880F991F6A95E2F7809582238ABB089558
S11301E027B381E090E002C0880F991F6A95E2F777
S11301F08095822387BB089524B381E090E002C0F8
S1130200880F991F6A95E2F78095822384BB08952D
S113021021B381E090E002C0880F991F6A95E2F74C
S11302208095822381BB08954130A1F5813089F006
S113023028F08230C9F0833011F108952BB381E0A6
S113024090E002C0880F991F6A95E2F7822B8BBB5E
S1130250089528B381E090E002C0880F991F6A9541
S1130260E2F7822B88BB089525B381E090E002C0B9
S1130270880F991F6A95E2F7822B85BB089522B3F4
S113028081E090E002C0880F991F6A95E2F7822B03
S113029082BB0895411137C0813091F028F082303B
S11302A0D9F0833029F108952BB381E090E002C0A6
S11302B0880F991F6A95E2F7809582238BBB089576
S11302C028B381E090E002C0880F991F6A95E2F795
S11302D08095822388BB089525B381E090E002C015
S11302E0880F991F6A95E2F78095822385BB08954C
S11302F022B381E090E002C0880F991F6A95E2F76B
S11303008095822382BB08950F931F93CF93DF932D
S1130310082F2FC0DDEC0D9FD12D1124D695D69535
S1130320D6959D2F990F892F880F880F890F102F2D
S1130330181BC0E01BC060E08D2F0E94720081EE8C
S113034094E00197F1F700C0000061E0812F0E9462
S1130350720081EE94E00197F1F700C0000087EA93
S113036091E60197F1F700C00000CF5FC43618F39F
S113037001500111CFCFDF91CF911F910F910895BB
S113038041E063E083E00E94A40041E067E082E092
S11303900E94A40041E062E082E00E94A4000E9466
S11303A0360041E063E083E00E94140140E067E02E
S11303B082E00E94140140E062E082E00E941401A5
S11303C08CE30E94840140E063E083E00E94140116
S11303D041E067E082E00E94140140E062E082E0D4
S11303E00E94140185E00E94840140E063E083E000
S11303F00E94140140E067E082E00E94140141E0A1
S113040062E082E00E9414018CE30E948401C9CF5F
S1070410F894FFCF8A
S9030000FC
