:100000000C942A000C9434000C9434000C943400AA
:100010000C9434000C9434000C9434000C94340090
:100020000C9434000C9434000C9434000C94340080
:100030000C9434000C9434000C9434000C94340070
:100040000C9434000C9434000C9434000C94340060
:100050000C94340011241FBECFE5D8E0DEBFCDBF25
:100060000E949B000C94A6000C940000813041F08B
:1000700028F0823039F0833039F008956ABB089552
:1000800067BB089564BB089561BB0895813041F05A
:1000900028F0823039F0833039F008956BBB089531
:1000A00068BB089565BB089562BB0895CF93DF9345
:1000B00060E880E00E9446002FEF81EE94E021503E
:1000C00080409040E1F700C0000060E480E00E94C2
:1000D00046002FEF84E694E0215080409040E1F705
:1000E00000C0000060E080E00E944600C0E0D0E078
:1000F00018C089E090E08C1B9D0B61E070E002C0AD
:10010000660F771F8A95E2F781E00E9446002FEF85
:1001100081EE94E0215080409040E1F700C0000063
:100120002196CA30D1052CF360E081E00E944600A0
:10013000DF91CF9108956FEF81E00E94360060EC6F
:1001400080E00E9436000E945600FDCFF894FFCF59
:00000001FF
