:100000000C942A000C943F000C943F000C943F0089
:100010000C943F000C943F000C943F000C943F0064
:100020000C943F000C943F000C943F000C943F0054
:100030000C943F000C943F000C943F000C943F0044
:100040000C943F000C943F000C943F000C943F0034
:100050000C943F0011241FBECFE5D8E0DEBFCDBF1A
:1000600010E0A0E6B0E0E4E1F7E002C005900D92F8
:10007000A037B107D9F70E9438030C9488030C9479
:1000800000004130A1F5813089F028F08230C9F0BC
:10009000833011F108952AB381E090E002C0880F07
:1000A000991F6A95E2F7822B8ABB089527B381E0F6
:1000B00090E002C0880F991F6A95E2F7822B87BBF8
:1000C000089524B381E090E002C0880F991F6A95DB
:1000D000E2F7822B84BB089521B381E090E002C057
:1000E000880F991F6A95E2F7822B81BB0895411111
:1000F00037C0813091F028F08230D9F0833029F177
:1001000008952AB381E090E002C0880F991F6A9594
:10011000E2F7809582238ABB089527B381E090E0BF
:1001200002C0880F991F6A95E2F78095822387BBEA
:10013000089524B381E090E002C0880F991F6A956A
:10014000E2F78095822384BB089521B381E090E09B
:1001500002C0880F991F6A95E2F78095822381BBC0
:1001600008954130A1F5813089F028F08230C9F03E
:10017000833011F108952BB381E090E002C0880F25
:10018000991F6A95E2F7822B8BBB089528B381E013
:1001900090E002C0880F991F6A95E2F7822B88BB16
:1001A000089525B381E090E002C0880F991F6A95F9
:1001B000E2F7822B85BB089522B381E090E002C074
:1001C000880F991F6A95E2F7822B82BB089541112F
:1001D00037C0813091F028F08230D9F0833029F196
:1001E00008952BB381E090E002C0880F991F6A95B3
:1001F000E2F7809582238BBB089528B381E090E0DD
:1002000002C0880F991F6A95E2F78095822388BB08
:10021000089525B381E090E002C0880F991F6A9588
:10022000E2F78095822385BB089522B381E090E0B8
:1002300002C0880F991F6A95E2F78095822382BBDE
:100240000895813079F028F08230A9F08330E1F010
:1002500024C089B390E002C0959587956A95E2F72E
:100260008170089586B390E002C0959587956A9550
:10027000E2F78170089583B390E002C09595879569
:100280006A95E2F78170089580B390E002C0959579
:1002900087956A95E2F78170089580E0089581302E
:1002A00041F028F0823039F0833039F008956ABB8C
:1002B000089567BB089564BB089561BB08950F93CB
:1002C0001F93CF93DF93CDB7DEB728970FB6F8947F
:1002D000DEBF0FBECDBF84E0898385E08A8386E0E0
:1002E0008B8387E08C831D8281E08E8382E08F8305
:1002F00083E0888710E012C0E1E0F0E0EC0FFD1F22
:10030000E10FF11D008141E0602F82E00E94410079
:1003100041E0602F82E00E94B1001F5F143060F363
:1003200010E012C0E5E0F0E0EC0FFD1FE10FF11D61
:10033000008140E0602F82E00E94410041E0602F98
:1003400082E00E94B1001F5F143060F328960FB660
:10035000F894DEBF0FBECDBFDF91CF911F910F91FB
:100360000895AF92BF92CF92DF92EF92FF920F93D8
:100370001F93CF93DF93CDB7DEB728970FB6F894CE
:10038000DEBF0FBECDBF84E0898385E08A8386E02F
:100390008B8387E08C831D8281E08E8382E08F8354
:1003A00083E08887B12C3BC0CB2CD12CE1E0F0E07E
:1003B000EC0FFD1FEC0DFD1DA08040E06A2D82E0DA
:1003C0000E94B10010E023C0E12EF12CE5E0F0E046
:1003D000EC0FFD1FEE0DFF1D0081602F82E00E94DB
:1003E0002101811113C0C701880F991F880F991F20
:1003F000805A9F4FFC01EC0DFD1D1081602F82E0A3
:100400000E9421018823D1F3812F0DC01F5F14307A
:10041000D8F241E06A2D82E00E94B100B39483E0FB
:100420008B1510F68FEF28960FB6F894DEBF0FBE2F
:10043000CDBFDF91CF911F910F91FF90EF90DF9093
:10044000CF90BF90AF9008950F931F93CF93DF93FA
:1004500000D000D0CDB7DEB7082F84E0898385E0D7
:100460008A8386E08B8387E08C8310E014C0402F62
:1004700050E0012E02C0559547950A94E2F741706D
:10048000E1E0F0E0EC0FFD1FE10FF11D608180E085
:100490000E94B1001F5F143050F30F900F900F9027
:1004A0000F90DF91CF911F910F91089541E063E08C
:1004B00081E00E94B1008FE39FE10197F1F700C056
:1004C000000040E063E081E00E94B1000895CF9316
:1004D000C82F41E061E081E00E94B10040E062E0AD
:1004E00081E00E94B1008C2F82958F700E942402BF
:1004F0000E9456028C2F0E9424020E945602CF9125
:100500000895CF93C82F40E061E081E00E94B100E0
:1005100040E062E081E00E94B1008C2F82958F70F4
:100520000E9424020E9456028C2F0E9424020E94E4
:100530005602CF9108952FEF83EF91E02150804034
:100540009040E1F700C0000082E00E9424020E9477
:10055000560282E00E9424020E94560288E00E9415
:1005600024020E9456028CE00E94810281E00E94D7
:10057000810208951F93CF93DF93CDB7DEB72A97FB
:100580000FB6F894DEBF0FBECDBFAC01892BA1F52D
:1005900080E30E94670244C09A01ADECBCEC0E946B
:1005A00079039695879596958795969587959C015D
:1005B000220F331F880F991F880F991F880F991FCB
:1005C000820F931F9A01281B390BC901E1E0F0E06B
:1005D000EC0FFD1FE10FF11D17FDFA95805D808383
:1005E0009A010E947903AC01569547955695479517
:1005F000569547951F5F01C010E04115510561F602
:1006000011500CC0E1E0F0E0EC0FFD1FE10FF11D17
:1006100017FDFA9580810E9467021150112394F70B
:100620002A960FB6F894DEBF0FBECDBFDF91CF91F3
:100630001F9108956B3249F018F46A3251F011C0DD
:100640006D3229F06F3249F00CC0840F0895841B7D
:100650000895849F802D11240895642F0E946D03B6
:10066000089580E008950E94B1018F3FE1F308955D
:1006700060EF80E00E944F016EE081E00E944F0138
:100680000E949B020E945F010E943303C82F90E0EA
:100690000E94BA020E943303D82F0E9467020E9470
:1006A0003303182F90E00E94BA02412F6D2F8C2F38
:1006B0000E941A03C82F0E9433038D3331F40E9425
:1006C00067028C2F90E00E94BA020E9433038334A9
:1006D000D9F681E00E948102D7CF991B79E004C04E
:1006E000991F961708F0961B881F7A95C9F7809571
:1006F0000895A29FB001B39FC001A39F700D811DFB
:100700001124911DB29F700D811D1124911D08951A
:04071000F894FFCF8B
:100714000708092F0405062A0102032D43003D2B77
:00000001FF
